{
  "contractName": "EventTicket",
  "abi": [
    {
      "inputs": [
        {
          "internalType": "string",
          "name": "name",
          "type": "string"
        }
      ],
      "stateMutability": "nonpayable",
      "type": "constructor"
    },
    {
      "inputs": [],
      "name": "eventName",
      "outputs": [
        {
          "internalType": "string",
          "name": "",
          "type": "string"
        }
      ],
      "stateMutability": "view",
      "type": "function"
    },
    {
      "inputs": [],
      "name": "owner",
      "outputs": [
        {
          "internalType": "address",
          "name": "",
          "type": "address"
        }
      ],
      "stateMutability": "view",
      "type": "function"
    },
    {
      "inputs": [],
      "name": "saleOpen",
      "outputs": [
        {
          "internalType": "bool",
          "name": "",
          "type": "bool"
        }
      ],
      "stateMutability": "view",
      "type": "function"
    },
    {
      "inputs": [
        {
          "internalType": "uint256",
          "name": "",
          "type": "uint256"
        }
      ],
      "name": "sections",
      "outputs": [
        {
          "internalType": "string",
          "name": "name",
          "type": "string"
        },
        {
          "internalType": "uint256",
          "name": "num_tickets",
          "type": "uint256"
        },
        {
          "internalType": "uint256",
          "name": "sold",
          "type": "uint256"
        },
        {
          "internalType": "uint256",
          "name": "price",
          "type": "uint256"
        },
        {
          "internalType": "uint256",
          "name": "ticketLimit",
          "type": "uint256"
        }
      ],
      "stateMutability": "view",
      "type": "function"
    },
    {
      "inputs": [
        {
          "internalType": "uint256",
          "name": "",
          "type": "uint256"
        }
      ],
      "name": "tickets",
      "outputs": [
        {
          "internalType": "uint256",
          "name": "sectionId",
          "type": "uint256"
        },
        {
          "internalType": "address",
          "name": "owner",
          "type": "address"
        },
        {
          "internalType": "bool",
          "name": "used",
          "type": "bool"
        },
        {
          "internalType": "bool",
          "name": "blocked",
          "type": "bool"
        }
      ],
      "stateMutability": "view",
      "type": "function"
    },
    {
      "inputs": [
        {
          "internalType": "address",
          "name": "",
          "type": "address"
        }
      ],
      "name": "ticketsPurchasedByBuyer",
      "outputs": [
        {
          "internalType": "uint256",
          "name": "",
          "type": "uint256"
        }
      ],
      "stateMutability": "view",
      "type": "function"
    },
    {
      "inputs": [
        {
          "internalType": "string",
          "name": "sectionName",
          "type": "string"
        },
        {
          "internalType": "uint256",
          "name": "num_tickets",
          "type": "uint256"
        },
        {
          "internalType": "uint256",
          "name": "sectionPrice",
          "type": "uint256"
        },
        {
          "internalType": "uint256",
          "name": "maxTicketsPerPerson",
          "type": "uint256"
        }
      ],
      "name": "createSection",
      "outputs": [],
      "stateMutability": "nonpayable",
      "type": "function"
    },
    {
      "inputs": [],
      "name": "startSale",
      "outputs": [],
      "stateMutability": "nonpayable",
      "type": "function"
    },
    {
      "inputs": [],
      "name": "endSale",
      "outputs": [],
      "stateMutability": "nonpayable",
      "type": "function"
    },
    {
      "inputs": [],
      "name": "getSections",
      "outputs": [
        {
          "components": [
            {
              "internalType": "string",
              "name": "name",
              "type": "string"
            },
            {
              "internalType": "uint256",
              "name": "num_tickets",
              "type": "uint256"
            },
            {
              "internalType": "uint256",
              "name": "sold",
              "type": "uint256"
            },
            {
              "internalType": "uint256",
              "name": "price",
              "type": "uint256"
            },
            {
              "internalType": "uint256",
              "name": "ticketLimit",
              "type": "uint256"
            }
          ],
          "internalType": "struct EventTicket.Section[]",
          "name": "",
          "type": "tuple[]"
        }
      ],
      "stateMutability": "view",
      "type": "function"
    },
    {
      "inputs": [],
      "name": "getTickets",
      "outputs": [
        {
          "components": [
            {
              "internalType": "uint256",
              "name": "sectionId",
              "type": "uint256"
            },
            {
              "internalType": "address",
              "name": "owner",
              "type": "address"
            },
            {
              "internalType": "bool",
              "name": "used",
              "type": "bool"
            },
            {
              "internalType": "bool",
              "name": "blocked",
              "type": "bool"
            }
          ],
          "internalType": "struct EventTicket.Ticket[]",
          "name": "",
          "type": "tuple[]"
        }
      ],
      "stateMutability": "view",
      "type": "function"
    },
    {
      "inputs": [
        {
          "internalType": "uint256",
          "name": "id",
          "type": "uint256"
        }
      ],
      "name": "verifyTicket",
      "outputs": [
        {
          "internalType": "bool",
          "name": "",
          "type": "bool"
        }
      ],
      "stateMutability": "view",
      "type": "function"
    },
    {
      "inputs": [
        {
          "internalType": "uint256",
          "name": "id",
          "type": "uint256"
        }
      ],
      "name": "checkIn",
      "outputs": [],
      "stateMutability": "nonpayable",
      "type": "function"
    },
    {
      "inputs": [
        {
          "internalType": "uint256",
          "name": "sectionId",
          "type": "uint256"
        }
      ],
      "name": "buyTicket",
      "outputs": [
        {
          "internalType": "uint256",
          "name": "",
          "type": "uint256"
        }
      ],
      "stateMutability": "payable",
      "type": "function"
    },
    {
      "inputs": [
        {
          "internalType": "uint256",
          "name": "sectionId",
          "type": "uint256"
        },
        {
          "internalType": "address",
          "name": "otherPerson",
          "type": "address"
        }
      ],
      "name": "buyTicketForOtherPerson",
      "outputs": [
        {
          "internalType": "uint256",
          "name": "",
          "type": "uint256"
        }
      ],
      "stateMutability": "payable",
      "type": "function"
    },
    {
      "inputs": [
        {
          "internalType": "uint256",
          "name": "id",
          "type": "uint256"
        }
      ],
      "name": "returnTicket",
      "outputs": [],
      "stateMutability": "nonpayable",
      "type": "function"
    }
  ],
  "bytecode": "0x608060405234801562000010575f80fd5b506040516200376b3803806200376b83398181016040528101906200003691906200022d565b3360015f6101000a81548173ffffffffffffffffffffffffffffffffffffffff021916908373ffffffffffffffffffffffffffffffffffffffff1602179055508060029081620000879190620004b3565b505f60045f6101000a81548160ff0219169083151502179055505062000597565b5f604051905090565b5f80fd5b5f80fd5b5f80fd5b5f80fd5b5f601f19601f8301169050919050565b7f4e487b71000000000000000000000000000000000000000000000000000000005f52604160045260245ffd5b6200010982620000c1565b810181811067ffffffffffffffff821117156200012b576200012a620000d1565b5b80604052505050565b5f6200013f620000a8565b90506200014d8282620000fe565b919050565b5f67ffffffffffffffff8211156200016f576200016e620000d1565b5b6200017a82620000c1565b9050602081019050919050565b5f5b83811015620001a657808201518184015260208101905062000189565b5f8484015250505050565b5f620001c7620001c18462000152565b62000134565b905082815260208101848484011115620001e657620001e5620000bd565b5b620001f384828562000187565b509392505050565b5f82601f830112620002125762000211620000b9565b5b815162000224848260208601620001b1565b91505092915050565b5f60208284031215620002455762000244620000b1565b5b5f82015167ffffffffffffffff811115620002655762000264620000b5565b5b6200027384828501620001fb565b91505092915050565b5f81519050919050565b7f4e487b71000000000000000000000000000000000000000000000000000000005f52602260045260245ffd5b5f6002820490506001821680620002cb57607f821691505b602082108103620002e157620002e062000286565b5b50919050565b5f819050815f5260205f209050919050565b5f6020601f8301049050919050565b5f82821b905092915050565b5f60088302620003457fffffffffffffffffffffffffffffffffffffffffffffffffffffffffffffffff8262000308565b62000351868362000308565b95508019841693508086168417925050509392505050565b5f819050919050565b5f819050919050565b5f6200039b620003956200038f8462000369565b62000372565b62000369565b9050919050565b5f819050919050565b620003b6836200037b565b620003ce620003c582620003a2565b84845462000314565b825550505050565b5f90565b620003e4620003d6565b620003f1818484620003ab565b505050565b5b8181101562000418576200040c5f82620003da565b600181019050620003f7565b5050565b601f82111562000467576200043181620002e7565b6200043c84620002f9565b810160208510156200044c578190505b620004646200045b85620002f9565b830182620003f6565b50505b505050565b5f82821c905092915050565b5f620004895f19846008026200046c565b1980831691505092915050565b5f620004a3838362000478565b9150826002028217905092915050565b620004be826200027c565b67ffffffffffffffff811115620004da57620004d9620000d1565b5b620004e68254620002b3565b620004f38282856200041c565b5f60209050601f83116001811462000529575f841562000514578287015190505b62000520858262000496565b8655506200058f565b601f1984166200053986620002e7565b5f5b8281101562000562578489015182556001820191506020850194506020810190506200053b565b868310156200058257848901516200057e601f89168262000478565b8355505b6001600288020188555050505b505050505050565b6131c680620005a55f395ff3fe6080604052600436106100f2575f3560e01c80638043c9c011610089578063da30bd1a11610058578063da30bd1a1461030f578063e95a644f14610337578063f0dbdc0a1461035f578063f495ced71461039b576100f2565b80638043c9c01461027b5780638da5cb5b146102a557806399288dbb146102cf578063b66a0e5d146102f9576100f2565b806350b44712116100c557806350b44712146101a0578063543cb81f146101df5780635b3119741461021b57806367dd74ca1461024b576100f2565b806335603440146100f6578063380d831b1461013657806348a4f2e91461014c5780634ed0262214610176575b5f80fd5b348015610101575f80fd5b5061011c60048036038101906101179190611d2f565b6103c3565b60405161012d959493929190611df3565b60405180910390f35b348015610141575f80fd5b5061014a61048a565b005b348015610157575f80fd5b506101606105ee565b60405161016d9190611fd0565b60405180910390f35b348015610181575f80fd5b5061018a610701565b6040516101979190612144565b60405180910390f35b3480156101ab575f80fd5b506101c660048036038101906101c19190611d2f565b6107f1565b6040516101d69493929190612182565b60405180910390f35b3480156101ea575f80fd5b5061020560048036038101906102009190611d2f565b610865565b60405161021291906121c5565b60405180910390f35b61023560048036038101906102309190612208565b610a0b565b6040516102429190612246565b60405180910390f35b61026560048036038101906102609190611d2f565b610e21565b6040516102729190612246565b60405180910390f35b348015610286575f80fd5b5061028f611236565b60405161029c919061225f565b60405180910390f35b3480156102b0575f80fd5b506102b96112c2565b6040516102c6919061227f565b60405180910390f35b3480156102da575f80fd5b506102e36112e7565b6040516102f091906121c5565b60405180910390f35b348015610304575f80fd5b5061030d6112f9565b005b34801561031a575f80fd5b5061033560048036038101906103309190611d2f565b61143f565b005b348015610342575f80fd5b5061035d60048036038101906103589190611d2f565b611844565b005b34801561036a575f80fd5b5061038560048036038101906103809190612298565b611a1f565b6040516103929190612246565b60405180910390f35b3480156103a6575f80fd5b506103c160048036038101906103bc91906123ef565b611a33565b005b600381815481106103d2575f80fd5b905f5260205f2090600502015f91509050805f0180546103f19061249c565b80601f016020809104026020016040519081016040528092919081815260200182805461041d9061249c565b80156104685780601f1061043f57610100808354040283529160200191610468565b820191905f5260205f20905b81548152906001019060200180831161044b57829003601f168201915b5050505050908060010154908060020154908060030154908060040154905085565b60015f9054906101000a900473ffffffffffffffffffffffffffffffffffffffff1673ffffffffffffffffffffffffffffffffffffffff163373ffffffffffffffffffffffffffffffffffffffff1614610519576040517f08c379a000000000000000000000000000000000000000000000000000000000815260040161051090612516565b60405180910390fd5b6001151560045f9054906101000a900460ff1615151461056e576040517f08c379a00000000000000000000000000000000000000000000000000000000081526004016105659061257e565b60405180910390fd5b5f60045f6101000a81548160ff02191690831515021790555060015f9054906101000a900473ffffffffffffffffffffffffffffffffffffffff1673ffffffffffffffffffffffffffffffffffffffff166108fc4790811502906040515f60405180830381858888f193505050501580156105eb573d5f803e3d5ffd5b50565b60606003805480602002602001604051908101604052809291908181526020015f905b828210156106f8578382905f5260205f2090600502016040518060a00160405290815f820180546106419061249c565b80601f016020809104026020016040519081016040528092919081815260200182805461066d9061249c565b80156106b85780601f1061068f576101008083540402835291602001916106b8565b820191905f5260205f20905b81548152906001019060200180831161069b57829003601f168201915b5050505050815260200160018201548152602001600282015481526020016003820154815260200160048201548152505081526020019060010190610611565b50505050905090565b60606005805480602002602001604051908101604052809291908181526020015f905b828210156107e8578382905f5260205f2090600202016040518060800160405290815f8201548152602001600182015f9054906101000a900473ffffffffffffffffffffffffffffffffffffffff1673ffffffffffffffffffffffffffffffffffffffff1673ffffffffffffffffffffffffffffffffffffffff1681526020016001820160149054906101000a900460ff161515151581526020016001820160159054906101000a900460ff16151515158152505081526020019060010190610724565b50505050905090565b60058181548110610800575f80fd5b905f5260205f2090600202015f91509050805f015490806001015f9054906101000a900473ffffffffffffffffffffffffffffffffffffffff16908060010160149054906101000a900460ff16908060010160159054906101000a900460ff16905084565b5f3373ffffffffffffffffffffffffffffffffffffffff16600583815481106108915761089061259c565b5b905f5260205f2090600202016001015f9054906101000a900473ffffffffffffffffffffffffffffffffffffffff1673ffffffffffffffffffffffffffffffffffffffff1614610916576040517f08c379a000000000000000000000000000000000000000000000000000000000815260040161090d90612613565b60405180910390fd5b5f15156005838154811061092d5761092c61259c565b5b905f5260205f20906002020160010160149054906101000a900460ff1615151461098c576040517f08c379a00000000000000000000000000000000000000000000000000000000081526004016109839061267b565b60405180910390fd5b5f1515600583815481106109a3576109a261259c565b5b905f5260205f20906002020160010160159054906101000a900460ff16151514610a02576040517f08c379a00000000000000000000000000000000000000000000000000000000081526004016109f9906126e3565b60405180910390fd5b60019050919050565b5f6001151560045f9054906101000a900460ff16151514610a61576040517f08c379a0000000000000000000000000000000000000000000000000000000008152600401610a589061274b565b60405180910390fd5b6003805490508310610aa8576040517f08c379a0000000000000000000000000000000000000000000000000000000008152600401610a9f906127b3565b60405180910390fd5b60038381548110610abc57610abb61259c565b5b905f5260205f2090600502016001015460038481548110610ae057610adf61259c565b5b905f5260205f2090600502016002015410610b30576040517f08c379a0000000000000000000000000000000000000000000000000000000008152600401610b279061281b565b60405180910390fd5b60038381548110610b4457610b4361259c565b5b905f5260205f209060050201600301543414610b95576040517f08c379a0000000000000000000000000000000000000000000000000000000008152600401610b8c906128a9565b60405180910390fd5b60038381548110610ba957610ba861259c565b5b905f5260205f2090600502016004015460015f808573ffffffffffffffffffffffffffffffffffffffff1673ffffffffffffffffffffffffffffffffffffffff1681526020019081526020015f2054610c0291906128f4565b1115610c43576040517f08c379a0000000000000000000000000000000000000000000000000000000008152600401610c3a90612997565b60405180910390fd5b610c4b611c82565b83815f01818152505082816020019073ffffffffffffffffffffffffffffffffffffffff16908173ffffffffffffffffffffffffffffffffffffffff1681525050600581908060018154018082558091505060019003905f5260205f2090600202015f909190919091505f820151815f01556020820151816001015f6101000a81548173ffffffffffffffffffffffffffffffffffffffff021916908373ffffffffffffffffffffffffffffffffffffffff16021790555060408201518160010160146101000a81548160ff02191690831515021790555060608201518160010160156101000a81548160ff021916908315150217905550505060038481548110610d5957610d5861259c565b5b905f5260205f2090600502016001015f815480929190610d78906129b5565b919050555060038481548110610d9157610d9061259c565b5b905f5260205f2090600502016002015f815480929190610db0906129dc565b91905055505f808473ffffffffffffffffffffffffffffffffffffffff1673ffffffffffffffffffffffffffffffffffffffff1681526020019081526020015f205f815480929190610e01906129dc565b91905055506001600580549050610e189190612a23565b91505092915050565b5f6001151560045f9054906101000a900460ff16151514610e77576040517f08c379a0000000000000000000000000000000000000000000000000000000008152600401610e6e9061274b565b60405180910390fd5b6003805490508210610ebe576040517f08c379a0000000000000000000000000000000000000000000000000000000008152600401610eb5906127b3565b60405180910390fd5b60038281548110610ed257610ed161259c565b5b905f5260205f2090600502016001015460038381548110610ef657610ef561259c565b5b905f5260205f2090600502016002015410610f46576040517f08c379a0000000000000000000000000000000000000000000000000000000008152600401610f3d9061281b565b60405180910390fd5b60038281548110610f5a57610f5961259c565b5b905f5260205f209060050201600301543414610fab576040517f08c379a0000000000000000000000000000000000000000000000000000000008152600401610fa2906128a9565b60405180910390fd5b60038281548110610fbf57610fbe61259c565b5b905f5260205f2090600502016004015460015f803373ffffffffffffffffffffffffffffffffffffffff1673ffffffffffffffffffffffffffffffffffffffff1681526020019081526020015f205461101891906128f4565b1115611059576040517f08c379a000000000000000000000000000000000000000000000000000000000815260040161105090612997565b60405180910390fd5b611061611c82565b82815f01818152505033816020019073ffffffffffffffffffffffffffffffffffffffff16908173ffffffffffffffffffffffffffffffffffffffff1681525050600581908060018154018082558091505060019003905f5260205f2090600202015f909190919091505f820151815f01556020820151816001015f6101000a81548173ffffffffffffffffffffffffffffffffffffffff021916908373ffffffffffffffffffffffffffffffffffffffff16021790555060408201518160010160146101000a81548160ff02191690831515021790555060608201518160010160156101000a81548160ff02191690831515021790555050506003838154811061116f5761116e61259c565b5b905f5260205f2090600502016001015f81548092919061118e906129b5565b9190505550600383815481106111a7576111a661259c565b5b905f5260205f2090600502016002015f8154809291906111c6906129dc565b91905055505f803373ffffffffffffffffffffffffffffffffffffffff1673ffffffffffffffffffffffffffffffffffffffff1681526020019081526020015f205f815480929190611217906129dc565b9190505550600160058054905061122e9190612a23565b915050919050565b600280546112439061249c565b80601f016020809104026020016040519081016040528092919081815260200182805461126f9061249c565b80156112ba5780601f10611291576101008083540402835291602001916112ba565b820191905f5260205f20905b81548152906001019060200180831161129d57829003601f168201915b505050505081565b60015f9054906101000a900473ffffffffffffffffffffffffffffffffffffffff1681565b60045f9054906101000a900460ff1681565b60015f9054906101000a900473ffffffffffffffffffffffffffffffffffffffff1673ffffffffffffffffffffffffffffffffffffffff163373ffffffffffffffffffffffffffffffffffffffff1614611388576040517f08c379a000000000000000000000000000000000000000000000000000000000815260040161137f90612aa0565b60405180910390fd5b5f151560045f9054906101000a900460ff161515146113dc576040517f08c379a00000000000000000000000000000000000000000000000000000000081526004016113d390612b08565b60405180910390fd5b5f60038054905011611423576040517f08c379a000000000000000000000000000000000000000000000000000000000815260040161141a90612b96565b60405180910390fd5b600160045f6101000a81548160ff021916908315150217905550565b6001151560045f9054906101000a900460ff16151514611494576040517f08c379a000000000000000000000000000000000000000000000000000000000815260040161148b9061274b565b60405180910390fd5b60058054905081106114db576040517f08c379a00000000000000000000000000000000000000000000000000000000081526004016114d290612bfe565b60405180910390fd5b3373ffffffffffffffffffffffffffffffffffffffff16600582815481106115065761150561259c565b5b905f5260205f2090600202016001015f9054906101000a900473ffffffffffffffffffffffffffffffffffffffff1673ffffffffffffffffffffffffffffffffffffffff161461158b576040517f08c379a000000000000000000000000000000000000000000000000000000000815260040161158290612613565b60405180910390fd5b5f1515600582815481106115a2576115a161259c565b5b905f5260205f20906002020160010160149054906101000a900460ff16151514611601576040517f08c379a00000000000000000000000000000000000000000000000000000000081526004016115f89061267b565b60405180910390fd5b5f1515600582815481106116185761161761259c565b5b905f5260205f20906002020160010160159054906101000a900460ff16151514611677576040517f08c379a000000000000000000000000000000000000000000000000000000000815260040161166e906126e3565b60405180910390fd5b60016005828154811061168d5761168c61259c565b5b905f5260205f20906002020160010160156101000a81548160ff0219169083151502179055506003600582815481106116c9576116c861259c565b5b905f5260205f2090600202015f0154815481106116e9576116e861259c565b5b905f5260205f2090600502016001015f815480929190611708906129dc565b91905055506003600582815481106117235761172261259c565b5b905f5260205f2090600202015f0154815481106117435761174261259c565b5b905f5260205f2090600502016002015f815480929190611762906129b5565b91905055503373ffffffffffffffffffffffffffffffffffffffff166108fc6003600584815481106117975761179661259c565b5b905f5260205f2090600202015f0154815481106117b7576117b661259c565b5b905f5260205f2090600502016003015490811502906040515f60405180830381858888f193505050501580156117ef573d5f803e3d5ffd5b505f803373ffffffffffffffffffffffffffffffffffffffff1673ffffffffffffffffffffffffffffffffffffffff1681526020019081526020015f205f81548092919061183c906129b5565b919050555050565b3373ffffffffffffffffffffffffffffffffffffffff166005828154811061186f5761186e61259c565b5b905f5260205f2090600202016001015f9054906101000a900473ffffffffffffffffffffffffffffffffffffffff1673ffffffffffffffffffffffffffffffffffffffff16146118f4576040517f08c379a00000000000000000000000000000000000000000000000000000000081526004016118eb90612c66565b60405180910390fd5b5f15156005828154811061190b5761190a61259c565b5b905f5260205f20906002020160010160149054906101000a900460ff1615151461196a576040517f08c379a00000000000000000000000000000000000000000000000000000000081526004016119619061267b565b60405180910390fd5b5f1515600582815481106119815761198061259c565b5b905f5260205f20906002020160010160159054906101000a900460ff161515146119e0576040517f08c379a00000000000000000000000000000000000000000000000000000000081526004016119d7906126e3565b60405180910390fd5b6001600582815481106119f6576119f561259c565b5b905f5260205f20906002020160010160146101000a81548160ff02191690831515021790555050565b5f602052805f5260405f205f915090505481565b5f151560045f9054906101000a900460ff16151514611a87576040517f08c379a0000000000000000000000000000000000000000000000000000000008152600401611a7e90612cf4565b60405180910390fd5b60015f9054906101000a900473ffffffffffffffffffffffffffffffffffffffff1673ffffffffffffffffffffffffffffffffffffffff163373ffffffffffffffffffffffffffffffffffffffff1614611b16576040517f08c379a0000000000000000000000000000000000000000000000000000000008152600401611b0d90612d5c565b60405180910390fd5b5f8211611b58576040517f08c379a0000000000000000000000000000000000000000000000000000000008152600401611b4f90612dea565b60405180910390fd5b5f8311611b9a576040517f08c379a0000000000000000000000000000000000000000000000000000000008152600401611b9190612e78565b60405180910390fd5b5f8111611bdc576040517f08c379a0000000000000000000000000000000000000000000000000000000008152600401611bd390612f06565b60405180910390fd5b611be4611cc0565b84815f0181905250838160200181815250505f8160400181815250508281606001818152505081816080018181525050600381908060018154018082558091505060019003905f5260205f2090600502015f909190919091505f820151815f019081611c5091906130c1565b506020820151816001015560408201518160020155606082015181600301556080820151816004015550505050505050565b60405180608001604052805f81526020015f73ffffffffffffffffffffffffffffffffffffffff1681526020015f151581526020015f151581525090565b6040518060a00160405280606081526020015f81526020015f81526020015f81526020015f81525090565b5f604051905090565b5f80fd5b5f80fd5b5f819050919050565b611d0e81611cfc565b8114611d18575f80fd5b50565b5f81359050611d2981611d05565b92915050565b5f60208284031215611d4457611d43611cf4565b5b5f611d5184828501611d1b565b91505092915050565b5f81519050919050565b5f82825260208201905092915050565b5f5b83811015611d91578082015181840152602081019050611d76565b5f8484015250505050565b5f601f19601f8301169050919050565b5f611db682611d5a565b611dc08185611d64565b9350611dd0818560208601611d74565b611dd981611d9c565b840191505092915050565b611ded81611cfc565b82525050565b5f60a0820190508181035f830152611e0b8188611dac565b9050611e1a6020830187611de4565b611e276040830186611de4565b611e346060830185611de4565b611e416080830184611de4565b9695505050505050565b5f81519050919050565b5f82825260208201905092915050565b5f819050602082019050919050565b5f82825260208201905092915050565b5f611e8e82611d5a565b611e988185611e74565b9350611ea8818560208601611d74565b611eb181611d9c565b840191505092915050565b611ec581611cfc565b82525050565b5f60a083015f8301518482035f860152611ee58282611e84565b9150506020830151611efa6020860182611ebc565b506040830151611f0d6040860182611ebc565b506060830151611f206060860182611ebc565b506080830151611f336080860182611ebc565b508091505092915050565b5f611f498383611ecb565b905092915050565b5f602082019050919050565b5f611f6782611e4b565b611f718185611e55565b935083602082028501611f8385611e65565b805f5b85811015611fbe5784840389528151611f9f8582611f3e565b9450611faa83611f51565b925060208a01995050600181019050611f86565b50829750879550505050505092915050565b5f6020820190508181035f830152611fe88184611f5d565b905092915050565b5f81519050919050565b5f82825260208201905092915050565b5f819050602082019050919050565b5f73ffffffffffffffffffffffffffffffffffffffff82169050919050565b5f61204282612019565b9050919050565b61205281612038565b82525050565b5f8115159050919050565b61206c81612058565b82525050565b608082015f8201516120865f850182611ebc565b5060208201516120996020850182612049565b5060408201516120ac6040850182612063565b5060608201516120bf6060850182612063565b50505050565b5f6120d08383612072565b60808301905092915050565b5f602082019050919050565b5f6120f282611ff0565b6120fc8185611ffa565b93506121078361200a565b805f5b8381101561213757815161211e88826120c5565b9750612129836120dc565b92505060018101905061210a565b5085935050505092915050565b5f6020820190508181035f83015261215c81846120e8565b905092915050565b61216d81612038565b82525050565b61217c81612058565b82525050565b5f6080820190506121955f830187611de4565b6121a26020830186612164565b6121af6040830185612173565b6121bc6060830184612173565b95945050505050565b5f6020820190506121d85f830184612173565b92915050565b6121e781612038565b81146121f1575f80fd5b50565b5f81359050612202816121de565b92915050565b5f806040838503121561221e5761221d611cf4565b5b5f61222b85828601611d1b565b925050602061223c858286016121f4565b9150509250929050565b5f6020820190506122595f830184611de4565b92915050565b5f6020820190508181035f8301526122778184611dac565b905092915050565b5f6020820190506122925f830184612164565b92915050565b5f602082840312156122ad576122ac611cf4565b5b5f6122ba848285016121f4565b91505092915050565b5f80fd5b5f80fd5b7f4e487b71000000000000000000000000000000000000000000000000000000005f52604160045260245ffd5b61230182611d9c565b810181811067ffffffffffffffff821117156123205761231f6122cb565b5b80604052505050565b5f612332611ceb565b905061233e82826122f8565b919050565b5f67ffffffffffffffff82111561235d5761235c6122cb565b5b61236682611d9c565b9050602081019050919050565b828183375f83830152505050565b5f61239361238e84612343565b612329565b9050828152602081018484840111156123af576123ae6122c7565b5b6123ba848285612373565b509392505050565b5f82601f8301126123d6576123d56122c3565b5b81356123e6848260208601612381565b91505092915050565b5f805f806080858703121561240757612406611cf4565b5b5f85013567ffffffffffffffff81111561242457612423611cf8565b5b612430878288016123c2565b945050602061244187828801611d1b565b935050604061245287828801611d1b565b925050606061246387828801611d1b565b91505092959194509250565b7f4e487b71000000000000000000000000000000000000000000000000000000005f52602260045260245ffd5b5f60028204905060018216806124b357607f821691505b6020821081036124c6576124c561246f565b5b50919050565b7f4f6e6c79206f776e6572206d617920656e642073616c650000000000000000005f82015250565b5f612500601783611d64565b915061250b826124cc565b602082019050919050565b5f6020820190508181035f83015261252d816124f4565b9050919050565b7f4e6565647320746f206265206f6e2073616c6520746f20656e640000000000005f82015250565b5f612568601a83611d64565b915061257382612534565b602082019050919050565b5f6020820190508181035f8301526125958161255c565b9050919050565b7f4e487b71000000000000000000000000000000000000000000000000000000005f52603260045260245ffd5b7f4e6f74206f776e6572206f66207469636b6574000000000000000000000000005f82015250565b5f6125fd601383611d64565b9150612608826125c9565b602082019050919050565b5f6020820190508181035f83015261262a816125f1565b9050919050565b7f5469636b657420616c72656164792075736564000000000000000000000000005f82015250565b5f612665601383611d64565b915061267082612631565b602082019050919050565b5f6020820190508181035f83015261269281612659565b9050919050565b7f5469636b657420616c72656164792072657475726e65640000000000000000005f82015250565b5f6126cd601783611d64565b91506126d882612699565b602082019050919050565b5f6020820190508181035f8301526126fa816126c1565b9050919050565b7f53616c65206d757374206265206f70656e0000000000000000000000000000005f82015250565b5f612735601183611d64565b915061274082612701565b602082019050919050565b5f6020820190508181035f83015261276281612729565b9050919050565b7f53656374696f6e204944206d7573742062652076616c696400000000000000005f82015250565b5f61279d601883611d64565b91506127a882612769565b602082019050919050565b5f6020820190508181035f8301526127ca81612791565b9050919050565b7f53656374696f6e20736f6c64206f7574000000000000000000000000000000005f82015250565b5f612805601083611d64565b9150612810826127d1565b602082019050919050565b5f6020820190508181035f830152612832816127f9565b9050919050565b7f46756c6c207072696365206f66207469636b6574206d757374206265207061695f8201527f6400000000000000000000000000000000000000000000000000000000000000602082015250565b5f612893602183611d64565b915061289e82612839565b604082019050919050565b5f6020820190508181035f8301526128c081612887565b9050919050565b7f4e487b71000000000000000000000000000000000000000000000000000000005f52601160045260245ffd5b5f6128fe82611cfc565b915061290983611cfc565b9250828201905080821115612921576129206128c7565b5b92915050565b7f4d6178696d756d206e756d626572206f66207469636b65747320616c726561645f8201527f7920726561636865640000000000000000000000000000000000000000000000602082015250565b5f612981602983611d64565b915061298c82612927565b604082019050919050565b5f6020820190508181035f8301526129ae81612975565b9050919050565b5f6129bf82611cfc565b91505f82036129d1576129d06128c7565b5b600182039050919050565b5f6129e682611cfc565b91507fffffffffffffffffffffffffffffffffffffffffffffffffffffffffffffffff8203612a1857612a176128c7565b5b600182019050919050565b5f612a2d82611cfc565b9150612a3883611cfc565b9250828203905081811115612a5057612a4f6128c7565b5b92915050565b7f4f6e6c79206f776e6572206d61792073746172742073616c65000000000000005f82015250565b5f612a8a601983611d64565b9150612a9582612a56565b602082019050919050565b5f6020820190508181035f830152612ab781612a7e565b9050919050565b7f53616c6520616c726561647920737461727465640000000000000000000000005f82015250565b5f612af2601483611d64565b9150612afd82612abe565b602082019050919050565b5f6020820190508181035f830152612b1f81612ae6565b9050919050565b7f4372656174652073656374696f6e73206265666f7265206f70656e696e6720735f8201527f616c650000000000000000000000000000000000000000000000000000000000602082015250565b5f612b80602383611d64565b9150612b8b82612b26565b604082019050919050565b5f6020820190508181035f830152612bad81612b74565b9050919050565b7f496e76616c6964207469636b65742049440000000000000000000000000000005f82015250565b5f612be8601183611d64565b9150612bf382612bb4565b602082019050919050565b5f6020820190508181035f830152612c1581612bdc565b9050919050565b7f4e6f74207469636b6574206f776e6572000000000000000000000000000000005f82015250565b5f612c50601083611d64565b9150612c5b82612c1c565b602082019050919050565b5f6020820190508181035f830152612c7d81612c44565b9050919050565b7f43616e6e6f7420656469742073656374696f6e73207768696c652073656c6c695f8201527f6e67207469636b65747300000000000000000000000000000000000000000000602082015250565b5f612cde602a83611d64565b9150612ce982612c84565b604082019050919050565b5f6020820190508181035f830152612d0b81612cd2565b9050919050565b7f4f6e6c79206f776e6572206d6179206372656174652073656374696f6e7300005f82015250565b5f612d46601e83611d64565b9150612d5182612d12565b602082019050919050565b5f6020820190508181035f830152612d7381612d3a565b9050919050565b7f5072696365206d757374206265206120706f736974697665206e756d626572205f8201527f2857656929000000000000000000000000000000000000000000000000000000602082015250565b5f612dd4602583611d64565b9150612ddf82612d7a565b604082019050919050565b5f6020820190508181035f830152612e0181612dc8565b9050919050565b7f4d7573742073656c6c206174206c65617374206f6e65207469636b65742070655f8201527f722073656374696f6e0000000000000000000000000000000000000000000000602082015250565b5f612e62602983611d64565b9150612e6d82612e08565b604082019050919050565b5f6020820190508181035f830152612e8f81612e56565b9050919050565b7f546865206d6178696d756d207469636b6574206e756d626572207065722070655f8201527f72736f6e206d757374206265206174206c65617374206f6e6500000000000000602082015250565b5f612ef0603983611d64565b9150612efb82612e96565b604082019050919050565b5f6020820190508181035f830152612f1d81612ee4565b9050919050565b5f819050815f5260205f209050919050565b5f6020601f8301049050919050565b5f82821b905092915050565b5f60088302612f807fffffffffffffffffffffffffffffffffffffffffffffffffffffffffffffffff82612f45565b612f8a8683612f45565b95508019841693508086168417925050509392505050565b5f819050919050565b5f612fc5612fc0612fbb84611cfc565b612fa2565b611cfc565b9050919050565b5f819050919050565b612fde83612fab565b612ff2612fea82612fcc565b848454612f51565b825550505050565b5f90565b613006612ffa565b613011818484612fd5565b505050565b5b81811015613034576130295f82612ffe565b600181019050613017565b5050565b601f8211156130795761304a81612f24565b61305384612f36565b81016020851015613062578190505b61307661306e85612f36565b830182613016565b50505b505050565b5f82821c905092915050565b5f6130995f198460080261307e565b1980831691505092915050565b5f6130b1838361308a565b9150826002028217905092915050565b6130ca82611d5a565b67ffffffffffffffff8111156130e3576130e26122cb565b5b6130ed825461249c565b6130f8828285613038565b5f60209050601f831160018114613129575f8415613117578287015190505b61312185826130a6565b865550613188565b601f19841661313786612f24565b5f5b8281101561315e57848901518255600182019150602085019450602081019050613139565b8683101561317b5784890151613177601f89168261308a565b8355505b6001600288020188555050505b50505050505056fea2646970667358221220624863da4cae3a7e79e714e2bb43d703fa115daba3cf2a5820ecef5ef60c141e64736f6c63430008150033",
  "immutableReferences": {},
  "source": "// SPDX-License-Identifier: MIT\npragma solidity >=0.4.22 <0.9.0;\n\ncontract EventTicket {\n    // Event info\n    struct Section {\n        string name;\n        uint256 num_tickets;\n        uint256 sold;\n        uint256 price;\n        uint256 ticketLimit;\n    }\n\n    mapping(address => uint256) public ticketsPurchasedByBuyer; // New mapping to track tickets purchased by each buyer\n\n    address public owner;\n    string public eventName;\n    Section[] public sections;\n    bool public saleOpen;\n\n    // Minted tickets\n    struct Ticket {\n        uint256 sectionId;\n        address owner;\n        bool used;\n        bool blocked;\n    }\n    Ticket[] public tickets;\n\n    constructor(string memory name) {\n        owner = msg.sender;\n        eventName = name;\n        saleOpen = false;\n    }\n\n    // Create section\n    function createSection(\n        string memory sectionName,\n        uint256 num_tickets,\n        uint256 sectionPrice,\n        uint256 maxTicketsPerPerson\n    ) public {\n        require(\n            saleOpen == false,\n            \"Cannot edit sections while selling tickets\"\n        );\n        require(msg.sender == owner, \"Only owner may create sections\");\n        require(sectionPrice > 0, \"Price must be a positive number (Wei)\");\n        require(num_tickets > 0, \"Must sell at least one ticket per section\");\n        require(\n            maxTicketsPerPerson > 0,\n            \"The maximum ticket number per person must be at least one\"\n        );\n\n        // Create new section\n        Section memory newSection;\n        newSection.name = sectionName;\n        newSection.num_tickets = num_tickets;\n        newSection.sold = 0;\n        newSection.price = sectionPrice;\n        newSection.ticketLimit = maxTicketsPerPerson;\n\n        sections.push(newSection);\n    }\n\n    // Start sale\n    function startSale() public {\n        require(msg.sender == owner, \"Only owner may start sale\");\n        require(saleOpen == false, \"Sale already started\");\n        require(sections.length > 0, \"Create sections before opening sale\");\n\n        saleOpen = true;\n    }\n\n    // End sale (withdraw)\n    function endSale() public {\n        require(msg.sender == owner, \"Only owner may end sale\");\n        require(saleOpen == true, \"Needs to be on sale to end\");\n        saleOpen = false;\n\n        payable(owner).transfer(address(this).balance);\n    }\n\n    function getSections() public view returns (Section[] memory) {\n        return sections;\n    }\n\n    function getTickets() public view returns (Ticket[] memory) {\n        return tickets;\n    }\n\n    function verifyTicket(uint256 id) public view returns (bool) {\n        require(tickets[id].owner == msg.sender, \"Not owner of ticket\");\n        require(tickets[id].used == false, \"Ticket already used\");\n        require(tickets[id].blocked == false, \"Ticket already returned\");\n\n        return true;\n    }\n\n    function checkIn(uint256 id) public {\n        require(tickets[id].owner == msg.sender, \"Not ticket owner\");\n        require(tickets[id].used == false, \"Ticket already used\");\n        require(tickets[id].blocked == false, \"Ticket already returned\");\n\n        tickets[id].used = true;\n    }\n\n    function buyTicket(uint256 sectionId) external payable returns (uint256) {\n        require(saleOpen == true, \"Sale must be open\");\n        require(sectionId < sections.length, \"Section ID must be valid\");\n        require(\n            sections[sectionId].sold < sections[sectionId].num_tickets,\n            \"Section sold out\"\n        );\n        require(\n            msg.value == sections[sectionId].price,\n            \"Full price of ticket must be paid\"\n        );\n        require(\n            ticketsPurchasedByBuyer[msg.sender] + 1 <=\n                sections[sectionId].ticketLimit,\n            \"Maximum number of tickets already reached\"\n        );\n\n        // Create new ticket\n        Ticket memory ticket;\n        ticket.sectionId = sectionId;\n        ticket.owner = msg.sender;\n        tickets.push(ticket);\n\n        // Decrease the available number of tickets and increase the sold number\n        sections[sectionId].num_tickets--;\n        sections[sectionId].sold++;\n\n        // Increase the number of bought tickets\n        ticketsPurchasedByBuyer[msg.sender]++;\n\n        return tickets.length - 1;\n    }\n\n    // Buy ticket for another person\n    function buyTicketForOtherPerson(\n        uint256 sectionId,\n        address otherPerson\n    ) external payable returns (uint256) {\n        require(saleOpen == true, \"Sale must be open\");\n        require(sectionId < sections.length, \"Section ID must be valid\");\n        require(\n            sections[sectionId].sold < sections[sectionId].num_tickets,\n            \"Section sold out\"\n        );\n        require(\n            msg.value == sections[sectionId].price,\n            \"Full price of ticket must be paid\"\n        );\n        require(\n            ticketsPurchasedByBuyer[otherPerson] + 1 <=\n                sections[sectionId].ticketLimit,\n            \"Maximum number of tickets already reached\"\n        );\n\n        // Create new ticket\n        Ticket memory ticket;\n        ticket.sectionId = sectionId;\n        ticket.owner = otherPerson;\n        tickets.push(ticket);\n\n        // Decrease the available number of tickets and increase the sold number\n        sections[sectionId].num_tickets--;\n        sections[sectionId].sold++;\n\n        // Increase the number of bought tickets\n        ticketsPurchasedByBuyer[otherPerson]++;\n\n        return tickets.length - 1;\n    }\n\n    // Return an own ticket\n    function returnTicket(uint256 id) public {\n        require(saleOpen == true, \"Sale must be open\");\n        require(id < tickets.length, \"Invalid ticket ID\");\n        require(tickets[id].owner == msg.sender, \"Not owner of ticket\");\n        require(tickets[id].used == false, \"Ticket already used\");\n        require(tickets[id].blocked == false, \"Ticket already returned\");\n\n        // Mark ticket as blocked in the array\n        tickets[id].blocked = true;\n\n        // Increase the available number of tickets and decrease the sold number\n        sections[tickets[id].sectionId].num_tickets++;\n        sections[tickets[id].sectionId].sold--;\n\n        // Refund the ticket price to the ticket owner\n        payable(msg.sender).transfer(sections[tickets[id].sectionId].price);\n\n        // Decrease the number of bought tickets\n        ticketsPurchasedByBuyer[msg.sender]--;\n    }\n}\n",
  "sourcePath": "/home/pierrelf/programmable-society/ticketmaestro/contracts/EventTicket.sol",
  "compiler": {
    "name": "solc",
    "version": "0.8.21+commit.d9974bed.Emscripten.clang"
  },
  "schemaVersion": "3.4.16",
  "updatedAt": "2023-12-12T13:05:14.026Z",
  "devdoc": {
    "kind": "dev",
    "methods": {},
    "version": 1
  },
  "userdoc": {
    "kind": "user",
    "methods": {},
    "version": 1
  }
}